:020000040000FA
:10000000B0050020D5000000EF000000B30D000097
:1000100000000000000000000000000000000000E0
:10002000000000000000000000000000F3000000DD
:100030000000000000000000F50000003D1E000070
:10004000951200009D120000A5120000AD120000E4
:10005000F90000009B010000F9000000F900000019
:10006000470F00004F0F0000291C0000F90000009E
:10007000C30D0000F9000000F90000009F0D000012
:10008000F9000000F9000000F9000000F90000008C
:10009000F9000000F9000000710E0000F9000000F6
:1000A00093010000F9000000F9000000F9000000D1
:1000B000570F0000F9000000B50700000707000017
:1000C0000348854600F04CF80048004785010000D1
:1000D000B005002009480A4A002100A1814200D948
:1000E0000244084802600848804708480047FEE785
:1000F000FEE7FEE7FEE7FEE7FEE700000000002067
:100100000000000008ED00E0E11E0000C10000005A
:1001100030B50B46014600202022012409E00D469F
:10012000D5409D4205D31D469540491B2546954027
:1001300040191546521E002DF1DC30BDD2B201E04F
:100140000270401C491EFBD270470022F6E710B532
:1001500013460A4604461946FFF7F0FF204610BD35
:10016000064C0125064E05E0E36807CC2B430C3C0A
:1001700098471034B442F7D3FFF7A6FF4C2600008F
:100180006C26000010B501F0ABFE02F00BFA002067
:1001900010BD10B5C046C04610BD10B5C046C04623
:1001A00010BD000010B50121084800F0A1F8012899
:1001B0000AD10749C96910221140080901F0BEFBA4
:1001C0000121024800F064F810BD000000740040F6
:1001D000000F024020480078002800D170471E48D8
:1001E000407800280ED108201C4948621A4840680F
:1001F000401E1949486000282CD108700820174972
:10020000886227E0144840781549097888421CDC48
:100210000020134908701048007A01280BD10820EB
:100220000E49886200200C49087208464068002880
:100230000BD1087009E008200849486201200649EE
:10024000087208464068401E486005480078401C17
:100250000349087000BFC1E794030020000F02406B
:1002600048000020002003490870082002498862E5
:100270007047000094030020000F0240034A5070B2
:1002800051600122014B1A70704700009403002056
:10029000C2698A43C2617047016901221143016149
:1002A000704742690A4342617047000010B5024638
:1002B000002901D1042010BD4B68086818438B68E1
:1002C0001843CB6818430B6918434B6918431369EB
:1002D000064C2340184310611068000C00040B8B7F
:1002E0009BB2184310600020E5E7000001F0FFFF1B
:1002F000024690690840884201D1012070470020E1
:10030000FCE7000010B59E480078002800D110BD21
:1003100000209B4908709B480078012821D19A4809
:100320000078002811D1012097490870974908806A
:1003300097480078401CC0B295490870022801DD3A
:100340000020087000F09AFD3CE090480088FF21F2
:100350002D31884236DA8D480088401C8B49088050
:1003600030E08A480088282822DA88480088002857
:100370001ED087480078022806DB002084490870D8
:10038000844908808149088082480088022809DB66
:100390000020804908807E4908707C49088000F070
:1003A00071FD0CE07B480088401C7A49088006E01B
:1003B0000020764908807649087076490880002038
:1003C000714908706F480078022815D1724800788A
:1003D000002805D101207049087000F05DFD10E093
:1003E0006E480088FF212D3188420ADA6B48008868
:1003F000401C6A49088004E000206749087067498A
:10040000088060480078042815D1654800780028E5
:1004100005D101206249087000F042FD1AE06148F0
:100420000088FF212D31884214DA5E480088401C84
:100430005C4908800EE05B480088282805DA5948A6
:100440000088002801D000F02FFD002054490870DA
:10045000544908804B480078082823D15248007836
:10046000002805D101205049087000F027FD41E027
:100470004E480088282802D1002000F020FD4B487B
:100480000088C82802D1012000F019FD47480088E3
:10049000FF212D3188422DDA44480088401C434911
:1004A000088027E041480088C82807D33F480088D3
:1004B000002803D0012000F019FD16E03B48008819
:1004C000642807D339480088002803D0022000F0B0
:1004D0000DFD0AE035480088282806DB33480088EF
:1004E000002802D0002000F001FD00202E490870F5
:1004F0002E4908802348007805281BD12C48007815
:10050000002805D101202A49087000F011FD16E0ED
:1005100028480088282801D100F00CFD25480088D3
:10052000FF212D3188420ADA22480088401C2149E7
:10053000088004E000201E4908701E490880114808
:100540000078032815D11C480078002805D1012027
:100550001949087000F0EDFC10E018480088FF21F0
:100560002D3188420ADA15480088401C134908805A
:1005700004E00020104908701049088000BFC6E65A
:100580000D000020160000200E0000201A000020A0
:100590002A000020280000200F0000201C0000205E
:1005A000100000201E00002011000020200000206C
:1005B0001200002022000020130000202400002050
:1005C0003A48C069102108400009002806D138487F
:1005D0000078012108433649087005E03448007866
:1005E00040084000324908703048C069082108407E
:1005F000C008002806D12E480078022108432C4963
:10060000087005E02A4800780221884328490870CC
:100610002848C069102108400009002806D1244854
:100620000078042108432249087005E0204800783A
:10063000042188431E4908701F48C06904210840EE
:100640008008002806D11A48007808210843184974
:10065000087005E01648007808218843144908709E
:100660001648C07A002800D1704700201349C8728C
:100670000F4800781249097888420DD11148008846
:10068000401C80B20F49088032280CDB0020088013
:1006900001200D49087006E00548007808490870F7
:1006A00000200849088000BFDEE70000000E02407D
:1006B00015000020000D0240000F02404C000020F9
:1006C00016000020180000200D00002030B5024662
:1006D000002012E01478521C604000230BE0C40795
:1006E000E40F002C04D044108C256C40204600E020
:1006F00040105C1CE3B2082BF1DB0C464D1EE9B246
:10070000002CE7D130BD10B5C046C04610BD00007A
:1007100070B504460E4615462046002805DBC20685
:10072000D20E012191401A4A116000BF3146204685
:1007300001F088FE012D0ED12046002809DB00BF04
:1007400000BFC206D20E01219140124A116000BFC3
:1007500000BF00BF1BE02046002816DBC206D20EF9
:10076000012191400B4A8032116000BF00BF00BFE1
:10077000BFF34F8F00BF00BF00BF00BF00BF00BF6F
:10078000BFF36F8F00BF00BF00BF00BF00BF70BDD1
:1007900080E200E000E100E00349044AD16204493C
:1007A000D1621146086370475A5A000000000240A7
:1007B000A5A5000010B5C046C04610BD18B503463B
:1007C0000024264800904012834202D90424204687
:1007D00018BD2248009006E00098411E00910028B4
:1007E00001D10920F4E71E48006AC006C00F0028A6
:1007F000F2D1401EFFF7D0FF1848009012E0009899
:10080000411E009100280BD016481549C8621648B1
:10081000C8620846006A80088000801C086201E007
:100820000920D5E70E48006A8007800F0228E6D12C
:10083000002018700948009006E00098411E0091C1
:10084000002801D10920C3E70548006A10210840AB
:100850000028F2D1FFF7A0FF2046B9E7FFFFFF0015
:10086000000002405A5A0000A5A50000F8B5044651
:100870000D46134600272A4800902646E018401EE1
:100880002849884202D904273846F8BD24480090F8
:1008900006E00098411E0091002801D10920F4E7EC
:1008A0002148006A102108400028F2D11C4800901D
:1008B00012E00098411E009100280BD01B481A49F5
:1008C000C8621B48C8620846006A80088000401C55
:1008D000086201E00920D8E71348006A8007800F0A
:1008E0000128E6D1801EFFF757FF12E001CD01C6B7
:1008F0005B1E0B48009006E00098411E0091002806
:1009000001D10920C1E70848006A102108400028E9
:10091000F2D1002BEAD10020FFF73EFF3846B4E7C2
:10092000FFFFFF00FF7F0000000002405A5A000056
:10093000A5A5000070B500240025002000F0AAF84D
:100940000546E8B2AA2852D021204002FFF736FF20
:10095000AA21002000F07AF900BF12E00022D24361
:100960000C2060432A490A50FF220C2060434018A3
:1009700002720022D2430C20604340184260601C87
:10098000C4B2142CEADB00212148EC308174481EEB
:1009900020494860FF208860002008731E492020FD
:1009A00000F054F90021242000F050F91A48C01E2C
:1009B000174914394861032115481438017700217B
:1009C000816101201349087008460178082000F071
:1009D0003DF9124800780221884310490870084602
:1009E00000788007C10F042000F030F90EE000F01D
:1009F00017F8042000F04EF840000221084003469A
:100A000006480078884318430449087070BD000008
:100A10007402002084030020030C1420A003002093
:100A200000B50023082000F035F818490870084682
:100A30000078142801DB00200870002322E0D90090
:100A40000846203000F026F8020912010C20584315
:100A50000F490A50D9000846203000F01BF8020761
:100A6000120F0C2058430A4940180272D900084658
:100A7000243000F00FF80C215943054A89184860CA
:100A8000581CC3B2142BDADB00BD00008403002025
:100A9000740200200146212252028A181068704711
:100AA00010B501460020012901D0022959D10129A0
:100AB0002FD1404A5268404B5B689A4205D13D4A6B
:100AC000127B3D4B9B689A4223D000223A4B1A700E
:100AD0001A4612781A73374A52685A60354A127B9E
:100AE0009A60002013E00024E4430C224243314B7F
:100AF000EC3B9C50FF240C224243D2181472002479
:100B0000E4430C224243D2185460421CD0B2142851
:100B1000E9DB284A5468284A12780C235A43254BAB
:100B2000EC3B9C50234A147B234A12780C235A43F3
:100B3000204BEC3BD21814721E4A94681E4A12785D
:100B40000C235A431B4BEC3BD21854601A4A1278C0
:100B5000521CD2B2184B1A70142A27DB13221A70B7
:100B600024E0032922D1002013E00024E4430C22D6
:100B70004243104BEC3B9C50FF240C224243D218C2
:100B800014720024E4430C224243D2185460421CE5
:100B9000D0B21428E9DB0023064A93745A1E064B90
:100BA0005A60FF229A601A7300221A700123034AC6
:100BB000137010BD60030020840300205C0200203D
:100BC00070B5002400251D480078002800D170BDB4
:100BD00000211A48017000241BE00C226243184BCC
:100BE0009A580C236343164E9B191B7A1A431146DD
:100BF000E2001046203000F029F80C226243334610
:100C0000D2185168E2001046243000F01FF8601C32
:100C1000C4B2142CE1DB0B480178082000F016F870
:100C2000094800788007C00FFF21C94308430546E3
:100C30002946042000F00AF800BFC8E75C02002043
:100C40007402002084030020A0030020F8B50546AC
:100C50000E460024012772B6002409E0A0002121DD
:100C6000490240180068A1000C4A5050601CC4B2F0
:100C7000802CF3D3A808800008490E500AE02120F8
:100C80004002FFF79BFD8022044921204002FFF72C
:100C9000EDFD0746002FF2D162B6F8BD5C000020E2
:100CA0000A791207120F042A04D102680B681A434A
:100CB000026003E002680B689A4302600A79120737
:100CC000120F012A03D142680B681A4342600A7965
:100CD0001207120F022A03D142680B689A4342603E
:100CE000F0234A681A40002A04D082680B681A432D
:100CF000826011E082680B689A43826001231B05C1
:100D00008A689A4204D182690B681A43826103E0BF
:100D100082690B689A4382610F231B044A681A4058
:100D2000002A3BD001231B04CA681A40002A04D0C1
:100D3000026C0B681A43026403E0026C0B689A436E
:100D4000026401235B04CA681A40002A04D0426C82
:100D50000B681A43426403E0426C0B689A43426496
:100D600001239B04CA681A40002A04D0826B0B68D6
:100D70001A43826303E0826B0B689A438263012308
:100D8000DB04CA681A40002A04D0C26B0B681A43FD
:100D9000C26303E0C26B0B689A43C263704710B52D
:100DA000C046C046FFF7FEF9C046C046C046C04632
:100DB00010BD08B50020009000BF00980028FCD0AE
:100DC00008BD10B5C046C04610BD0000014802492C
:100DD00008607047AAAA0000800F004001461C4826
:100DE0001C4A10601C48106000BF1A48C0684007C9
:100DF000400F0028F9D14A6808681043154A50602E
:100E000000BF1448C068C007C00F0028F9D1114ABC
:100E1000C868906000BF0F48C068022210400028D8
:100E2000F9D10C4A8868106100BF0A48C0680422E2
:100E300010400028F9D10948064A106000BF054853
:100E4000C068102210400028F9D000207047000030
:100E5000CCCC0000800F004055550000AAAA00002D
:100E60000148024908607047CCCC0000800F004068
:100E700010B5C046C046C046C04610BD10B500F013
:100E8000E9F910BD10B503484089012801D100F0EF
:100E9000DBF910BDA003002010B500F0D5F910BD9E
:100EA00010B500F0C1F810BD10B503484089012805
:100EB00001D100F0C9F910BDA0030020704710B5A2
:100EC0000446002C04D101210220FFF7D7F90CE0E1
:100ED000012C04D103210220FFF7D0F905E0022CF8
:100EE00003D102210846FFF7C9F910BD10B5044629
:100EF000002C0CD16421FFF7C1F97D21C9000A48FB
:100F000081820021C1820020084948700BE0012C39
:100F100009D105210220FFF7B1F90320FFF7C0FD39
:100F2000002000F0A1F810BD600300208403002021
:100F30007047704710B503210220FFF79FF9022088
:100F400000F092F810BD10B5C046C04610BD10B5F7
:100F5000C046C04610BD10B5C046C04610BD00001A
:100F600000B502200249487000F02AF800BD0000D8
:100F700049000020002803D102210B4A117012E021
:100F8000012803D10121084A11700CE002280AD17E
:100F900005494978012903D10221034A117002E071
:100FA0000121014A117070474900002000B501205D
:100FB0000249487000F004F800BD0000490000201C
:100FC00007484078012803D120200649886206E0BE
:100FD00003484078022802D1202002494862704725
:100FE00049000020000F024000B50E48407801285B
:100FF0000BD0022813D10B480078012804D1FFF749
:10100000D5FF0020074908700AE00648007802284A
:1010100004D1FFF7A5FF00200249087000E000BFDF
:1010200000BF00BD490000200E480078C006C00F78
:1010300000280FD10B4800788007C00F002803D18B
:1010400002200849887002E00120064988700020CB
:1010500004498880034800782021884301490870AA
:1010600070470000A0030020002806D11849097825
:1010700002229143164A117019E0012807D1144940
:10108000097802229143891C114A11700FE010491E
:101090000978022291430E4A12789207D20F012357
:1010A0005A40520002231A401143094A117008495C
:1010B000097820229143064A1170114609781022BE
:1010C0009143034A1170012202490A7070470000DF
:1010D000A00300205C0200201A484078052830D088
:1010E0001848C08800282CDD1648C088401E80B2F1
:1010F0001449C880002824D105208870084640780B
:1011000002280DD1084600781021884310300D497F
:10111000087008460078202188430A49087010E0CA
:101120000848407801280CD10648007820218843DF
:10113000203004490870084600781021884301498E
:1011400008707047A00300203C484078012804D074
:1011500002282AD005286ED150E03848807802282D
:101160000DD13749486204204862322033498880D3
:1011700002204870002088703248C88005E02F485F
:101180008078052801D12D4948702C488088002896
:1011900005D102202A4948620420886204E02748D9
:1011A0008088401E2549888045E0244880780128B1
:1011B0000ED10220224948620420486232201F4991
:1011C000888001204870002088701E48C88005E093
:1011D0001A488078052801D1184948701748808836
:1011E000002805D10220164988620420486204E0E4
:1011F00012488088401E114988801CE00F48807882
:10120000012804D10D4948700020887007E00B4880
:101210008078022803D10949487000208870022094
:101220000749486204204862002004498880C88039
:101230000448C88000BF00BF70470000A003002022
:10124000000C0240C05D0000052001498870704715
:10125000A00300200E4800788006C00F00280FD1A0
:101260000B4800788007C00F002803D101200849EF
:10127000887002E0022006498870002004498880B6
:101280000348007810218843014908707047000026
:10129000A003002010B5C046C04610BD10B5C04622
:1012A000C04610BD10B5C046C04610BD10B5C04602
:1012B000C04610BD10B572B60A2001F04BF900F01F
:1012C000DDFF00F0DFFE01F01DF800F00BFF00F085
:1012D0005BFF00F07BFF00F027FF00F0B7FF0A2064
:1012E00001F038F901200849087300F07BFEFFF790
:1012F00021FB01210520FEF7C1FF05210348817371
:101300000021417362B610BD4C0000206003002034
:1013100010B55F484078030001F086F805041C58BA
:101320007A98B6005B48C07BCC2812D159484068F7
:10133000594908605748007B584908607D21C90019
:101340005448C18201210220FEF798FF0120504934
:1013500048709AE04F4840684F490968884234D144
:101360004C48007B4D49096888422ED14948C07BD2
:10137000CC280BD17D21C9004648C1820121022021
:10138000FEF77CFF0220424948701EE04148C07BC6
:1013900055280BD17D21C9003E48C1820121022080
:1013A000FEF76CFF03203A4948700EE03948C07BD5
:1013B00011280AD17D21C9003648C18201210220AD
:1013C000FEF75CFF0420324948705EE03148C07B84
:1013D000CC281CD12F4840682F490968884205D184
:1013E0002C48007B2D490968884210D02948407C50
:1013F00001280CD003210220FEF740FF00212548E0
:10140000C1820020224948700220FFF749FB3CE0DE
:101410002048C07BCC2818D11E4840681E49096866
:10142000884212D11B48007B1C49096888420CD1B4
:1014300003210220FEF722FF00211648C18200206E
:10144000134948700320FFF72BFB1EE01148C07BB7
:10145000332818D10F4840680F490968884212D1D3
:101460000C48007B0D49096888420CD103210220F9
:10147000FEF704FF00210748C1820020044948709C
:101480000220FFF7F1FD00E000BF00BF10BD00002B
:10149000840300206003002040000020440000205E
:1014A00010B51D484078002802D0012831D112E043
:1014B0001A48C07BCC280DD17D21C90017488182F4
:1014C00040681749086032210220FEF7D7FE01204C
:1014D000114948701EE01148C07BCC2818D10F4834
:1014E00040680F490968884212D17D21C9000B4824
:1014F000818205210120FEF7C1FE0021074881827B
:10150000012181740020044948700120FFF7C8FAC6
:1015100000E000BF00BF10BD840300206003002076
:101520003C00002070B500240025C1484078002808
:1015300000D170BD002406E0BD48801C015D09306B
:101540000155601CC4B2BB48807BA042F4DC002083
:10155000B74948700021B7484174407B012843D106
:10156000B3490B31084600F0E3FCB248807B401ED3
:10157000C1B2AF480B30FFF7A9F8AE49897B491ECD
:10158000AB4A0B32515C884200D0D2E7A848C07BFE
:101590000006A749097C09040843A549497C0902BA
:1015A0000843A349897CF02211400843A1494860BF
:1015B0009F48807C0107090F9E4801739C48007B6F
:1015C00000069B49497B090408439949897B090224
:1015D0000843984988609648C17A9648C1739448F0
:1015E000C17C9448017424E09248407B002820D1BB
:1015F0008F48C07A00068E49097B090408438C494C
:10160000497B090208438A49897BF022114008433B
:10161000884948608648807B0107090F8548017327
:101620000021C94381608248C17B8248C173FF2188
:10163000017400217F48417400241BE07D4842680A
:101640000C2060437A4914310858824210D17948FD
:10165000027B0C2060434018007A824203D0754818
:10166000007B002804D1012172484174254603E023
:10167000601CC4B2142CE1DB00BF6E48407B012823
:101680003ED16C48407C01283AD16A48007B002852
:1016900036D00C2068436649143140184068401C1D
:1016A000002822D0634882680C20684340184068B4
:1016B000824200D23DE75F4882680C2068435C4963
:1016C00014314018406882421AD35A4882680C206C
:1016D000684340184260574800890005000F002801
:1016E0000ED10121544801700AE0524882680C2052
:1016F00068434F4914314018426001214E4801703F
:101700004C48C17B807F81421DD14A484168006AB4
:10171000814218D14748008B00281ED04548408B95
:101720007D21C900884208DA4248418B008B19228A
:10173000101A081881B23F48418332213D48818305
:1017400019210183F5E63B48C17B8177416801623D
:10175000408B401C81B237484183192135480183B1
:10176000C08A00280AD03348007B002841D0FFF708
:10177000CFFD3048C08A00283BD1DAE62D48808A68
:10178000002836D02B48007B002832D02948C07B67
:10179000CC280BD12748407C012807D100212548BF
:1017A000818205210120FEF769FDC2E62148C07B48
:1017B000112813D01F48C07B33280FD01D48C07B91
:1017C00055280BD01B48C07B0F2807D01948C07B79
:1017D000402803D01748C07B612808D11548407CB9
:1017E000012804D1002113488182FEF73BFDFFF759
:1017F00057FE1048C08A002817D10E48808A00285A
:1018000013D10C48407C01280FD100F06BF8094837
:10181000007B002809D00748C07BCC2805D17D215A
:10182000C9000448C182FFF773FD00BF81E60000D4
:1018300060020020600300205C02002010B52648F2
:10184000808A00280AD02448808A401E81B222481B
:101850008182002902D10020204948701E48C08A98
:1018600000280AD01C48C08A401E81B21A48C18292
:10187000002902D10020194948701748008B002820
:1018800005D01548008B401E81B2134801831248D1
:10189000808B002808D01048808B401E81B20E48F3
:1018A0008183002900D141830B48C07B1E2803D0CF
:1018B0000948C07B3C280DD10748408B002809D03F
:1018C0000548408BC82805DC05484089012801D11E
:1018D000FFF7BAFC10BD0000600300208403002065
:1018E000A003002010B51448C07B402819D006DCA6
:1018F0000F2812D0112807D033281AD107E0552815
:1019000008D0612815D110E0FFF7A4FC12E0FFF722
:101910008BFB0FE0FFF798FC0CE00220FFF72AFB9F
:1019200008E00120FFF726FB04E00020FFF722FB80
:1019300000E000BF00BF10BD6003002000B5B24949
:101940004978012900D100BDAF4909780B0000F0AA
:101950006BFD05040D285285FD000021AB4A117076
:10196000AB4A11700121A84A117049E100280FD03B
:10197000A6490978491CA54A1170114609782829F9
:101980000EDD0021A24A117002219F4A117007E06A
:101990009F490978491C9E4A117000219B4A117089
:1019A0002EE100280FD099490978491C974A1170F7
:1019B0000021974A11709549097868291ADD00219C
:1019C000914A117016E092490978491C904A1170A9
:1019D0008E490978382907DB8C490978682903DCA6
:1019E0000321894A117002E00021874A1170002109
:1019F000864A117004E100280FD185490978491CF5
:101A0000834A11700021814A117081490978202987
:101A100023DD00217C4A11701FE07C490978491CB4
:101A20007A4A11707A490978112910DB78490978C6
:101A300020290CDC0021774A1170774A1170774A0F
:101A40001170774A117004216F4A117002E0002171
:101A50006D4A117000216E4A1170D1E000287AD0D1
:101A60006A490978491C694A11706D490978002949
:101A700063D000216A4A117065490978082918DB8A
:101A8000634909780F2914DC64490978002903D0D7
:101A900000215D4A117031E05B49891C5D4A127872
:101AA000895C49060A0E5849891C5A4B1B78CA544E
:101AB00024E057490978042920DB5549097807298A
:101AC0001CDC56490978002902D14F4A117015E0F3
:101AD0004D49891C4F4A1278895C49060A0E4A49C9
:101AE000891C4C4B1B78CA544A4A1278895C0122E3
:101AF0001143454A921C474B1B78D15446490978FB
:101B0000491CC9B2444A1170082916DB0021117022
:101B100040490978491CCAB23E490A704149897B4B
:101B20008A420ADB00213B4A1170374A11703D4955
:101B3000897B052901D101215170344909780F2988
:101B400002DB0021304A1170002101E057E002E081
:101B50002F4A117052E02E490978491C2C4A117005
:101B60002A490978042907DB28490978072903DC71
:101B700000212A4A11700AE024490978082906DB65
:101B8000224909780F2902DC0121244A1170012120
:101B9000234A11701E4909780F292CDB2149897BC2
:101BA000491E1C4A1278914222D11B490978072903
:101BB0001ED11549891C174A1278895C49060A0EFC
:101BC0001149891C134B1B78CA5414490978002900
:101BD0000BD00D49891C0F4A1278895C01221143F0
:101BE000094A921C0B4B1B78D1540121064A5170B3
:101BF0000021054A11700021044A117000BF00BF86
:101C000000BF00BF9FE600006002002034000020FB
:101C1000350000203600002037000020380000206A
:101C2000390000206003002010B5C046C04610BD3A
:101C300000B50246D00FC007002809D05200520854
:101C400000F088FB0648806810430549886006E07C
:101C500000F080FB0248406810430149486000BD25
:101C60000020004010B500F081FB0148006810BD65
:101C700004000020C10FC907002907D04000400818
:101C80000549496B0143044A516304E00249096B69
:101C90000143014A116370470020004010B504461B
:101CA000042120680840002809D000F053FB324886
:101CB0000068C0218843E16808432F490860022179
:101CC00020680840002809D000F044FB2A4800683A
:101CD00038218843A16808432749086027492069BB
:101CE00009698907890F884209D300F027FB234837
:101CF0000069800880002169084320490861207834
:101D0000C007C00F00281DD060680F2808D100F060
:101D100021FB19488068202108431749886011E099
:101D200000F018FB14480068C008C0006168084350
:101D30001149086000F00EFB0F488068202188439D
:101D40000D4988600D49206909698907890F884212
:101D500009D200F0F3FA094800698008800021697F
:101D600008430649086100F001FB05480068054981
:101D70000860002010BD000000200040400002402C
:101D8000040000200000002000B502461078C007C3
:101D9000C00F002822D00121090350680840002804
:101DA00008D000F0CBFA1B48006980088000401C76
:101DB0001849086118495068086100F0CBFA1648C4
:101DC0008068012108431449886000BF12480069F7
:101DD0000121C9030840C00B0028F7D00421106876
:101DE0000840002813D00C499068886100F0B2FACE
:101DF00009488068042108430749886000BF0648F5
:101E000080690121C9030840C00B0028F7D00020D9
:101E100000BD0000400002400020004000210248B8
:101E2000417305218173704760030020012102483E
:101E300041730921817370476003002010B500F0E1
:101E400001F810BD01201B49C872087308700846CC
:101E50004078401CC0B24870052803DB0020487061
:101E6000012088701348C078401CC0B21149C87066
:101E70000A2803DB0020C870012008710D48407952
:101E8000401CC0B20B494871642803DB0020487134
:101E90000120887107480089401C80B205490881EB
:101EA0007D21C900884204DB00200249088101200D
:101EB000887270474C00002010B5FFF7D3FE05492B
:101EC00008600548054948610020886105200861CF
:101ED00010BD000000000020FFFFFF0000E000E058
:101EE00010B51149898A8805800D10498969890AC8
:101EF000890201430D4A91610B49498AC805C00D09
:101F000011460969490A49020143116110460069F5
:101F10000F214902884305214902401811460861F2
:101F2000FFF7CAFF10BD0000E00D100000200040C8
:101F3000F8B502460B46002000210024002500953C
:101F4000187805025E78A81905029E78A81905027E
:101F5000DE78A81919790D025E79A9190D029E790A
:101F6000A9190D02DE79A9191B4C002500951DE069
:101F700005011A4EB668AD19061975404609174F86
:101F8000FF68F6197540491B0D01144E3668AD19EE
:101F90000E1975404E09114F7F68F6197540401BA8
:101FA0000F4D641B009D6D1CEDB20095009D202D12
:101FB000DEDB050E157005022D0E557005042D0E85
:101FC0009570D0700D0E15710D022D0E55710D040A
:101FD0002D0E9571D171F8BD2037EFC6382600005F
:101FE000B979379E10B52248C06940210840800960
:101FF000002806D11F480078202108431D49087099
:1020000005E01C480078202188431A4908701A48C6
:10201000007B002800D110BD002017490873154827
:10202000007816490978884215D115480088401C67
:1020300080B213490880322818DB002008800F483E
:10204000007820210840002802D0FFF7EFFE0DE0C5
:10205000FFF7E4FE0AE0074800780849087000200E
:102060000749088003210220FEF708F900BFD2E7E4
:10207000000E02402F0000204C0000203000002005
:102080003200002000B587B01C216846FEF75DF8DD
:10209000FF200130FFF7CCFD0F48FFF7EBFD0020DC
:1020A00000900190029003900C48069069460C48FD
:1020B000FEF7FCF801210A48FEF7EAF8012108487A
:1020C000FEF7EFF8012203210F20FEF721FB044861
:1020D000FEF7E2F807B000BD004000809F05000059
:1020E000007400401FB50020009001900290039002
:1020F0000A48FFF7BFFD08200949886202200190C5
:10210000082000900020029069460548FEF7C8FDAF
:10211000002004494870486008701FBD0800008016
:10212000000F0240940300201FB500200090019092
:10213000029003901048FFF79DFD0F48801CFFF7A9
:1021400099FD0D48801DFFF795FD0120019010209D
:1021500000900020029069460848FEF7A1FD782013
:10216000009069460648FEF79BFD042000906946F2
:102170000448FEF795FD1FBD02000080000D0240DF
:10218000000E0240000F02401FB500200090019099
:10219000029003900A48FFF76DFD2020094948622C
:1021A00002200190202000900020029069460548FE
:1021B000FEF776FD022004494870002008701FBD1C
:1021C00008000080000F0240490000201FB50020D9
:1021D00000900190029003901848FFF74BFD1748BC
:1021E000401CFFF747FD0220154948620420486261
:1021F00002200190062000900020029069461048BD
:10220000FEF74EFD012001902020009069460D4808
:10221000FEF746FD05200C49487000208870C87004
:10222000084600780421884307490870084600786A
:1022300008218843044908701FBD00000100008088
:10224000000C0240000D0240A00300201FB500203A
:1022500000900190029003900648FFF70BFD0120CB
:102260000190102000900020029069460248FEF77D
:1022700017FD1FBD08000080000F024010B58AB096
:1022800000200690079008900990142101A8FDF7FE
:102290005CFF052006901748408A07901548808A01
:1022A000032189020843089006A8FFF76DFD072067
:1022B00001900020029003900490059001A8FFF780
:1022C000EDFC0D4C601E0D49884200D90CE0601EEB
:1022D0000B4948610321081F00F0F0F8002008496D
:1022E00088610720086100BF0A2000F033F90AB0B6
:1022F00010BD0000E00D1000C05D0000FFFFFF00FA
:1023000000E000E01FB500200090019002900390D3
:102310000120C003FFF7AEFC40200090CD2000015B
:10232000039005480290032001906846FEF756FD91
:10233000FEF796FD1FBD0000FF0F00000248034995
:10234000C8620348C86270475A5A00000000024041
:10235000A5A5000002480349C8600348C86070474B
:102360005A5A000000200040A5A5000070B527487B
:10237000848A058A2648806820210840002802D0E7
:10238000244825490860224800684007400F022879
:102390000ED11F4880698005800DA04204D1012024
:1023A000C0031D49086003E04B2040021A49086041
:1023B000174800684007400F00281BD114480069E7
:1023C000C005C00DA84203D114481349086002E0BB
:1023D0001348114908600E4800690F22520210404C
:1023E000400A80000F4A11580B480068FDF790FE24
:1023F000094908600648006838210840C1080648B5
:102400000068C8400449086070BD0000E00D10007D
:10241000002000400024F40004000020800CA302EF
:10242000006CDC021426000030B47446641E25786B
:10243000641CAB4204D3635D5B00E31830BC1847F7
:102440001D46F8E710B5002819DB1A4A03231B02C2
:10245000D21883089B00D2588307DC0EFF23A340C9
:102460009A438B071B0E8407E40EA3401A43114BBB
:10247000032424021B198408A4001A5118E00E4AF0
:1024800003071B0F083B9B089B00D2588307DC0EF9
:10249000FF23A3409A438B071B0E8407E40EA3403F
:1024A0001A43054B0407240F083CA408A4001A5142
:1024B00010BD000000E100E01CED00E010B50028B8
:1024C00019DB1A4A03231B02D21883089B00D25837
:1024D0008307DC0EFF23A3409A438B071B0E840760
:1024E000E40EA3401A43114B032424021B19840851
:1024F000A4001A5118E00E4A03071B0F083B9B0863
:102500009B00D2588307DC0EFF23A3409A438B071E
:102510001B0E8407E40EA3401A43054B0407240F47
:10252000083CA408A4001A5110BD000000E100E01E
:102530001CED00E002E008C8121F08C1002AFAD111
:1025400070477047002001E001C1121F002AFBD133
:1025500070470000F8B5074600267D21C9000F48E6
:102560000068FDF7D5FD784300900D48856912E0BD
:102570000B488469AC420ED0AC4202D2281B8619AB
:1025800004E007484069001B401986192546009859
:10259000864200D300E0EBE700BFF8BD000000205A
:1025A00000E000E0FEF786FE31E0FEF70FFCFEF7EC
:1025B00007F8FDF7A7FEFFF715FDFEF7B3FFFEF7DF
:1025C000FFFA13488078012802D100201049887052
:1025D0000F48007901280AD100200D490871FEF743
:1025E00003FDFEF7B1FDFEF777FDFFF727F9084879
:1025F0008079012804D1002005498871FDF7EAFDA2
:102600000348807A012802D1002001498872CCE772
:102610004C00002002000000040000000600000042
:10262000080000000A0000000C0000000E0000007E
:1026300010000000010000004C5DA65435FC65E769
:10264000E8E18D968AB975F8B979379E6C26000055
:10265000000000204C00000034250000B8260000D7
:102660004C0000206405000044250000C05D00000F
:1026700000093D0000093D000000000000000000CE
:10268000000000000000000000000000000000004A
:10269000000000000000000000000000000000003A
:1026A000000000000000000000000000000000002A
:0826B000000000000000000022
:04000005000000C136
:00000001FF
